:100000000C941D030C943A030C943A030C943A0399
:100010000C943A030C943A030C943A030C943A036C
:100020000C943A030C943A030C944D320C94213303
:100030000C94E42C0C943A030C943A030C943A0379
:100040000C943A030C943A030C943A030C943A033C
:100050000C943A030C946B2D0C943A030C943A03D1
:100060000C943A030C943A030C943A030C943A031C
:100070000C943A030C943A030C943A030C943A030C
:100080000C943A030C943A030C943A030C943A03FC
:100090000C943A030C943A030C943A030C943A03EC
:1000A0000C943A030C943A030C943A0314001A008B
:1000B0000800150017001C0018000C0012001300A7
:1000C00004001600070009000A000B000D000E00D6
:1000D0000F0028001D001B0006001900050011007C
:1000E00010003600370038001E001F0020002100DD
:1000F00022002300240025002600270014001A00F7
:100100000800150017001C0018000C001200130056
:1001100004001600070009000A000B000D000E0085
:100120000F0028001D001B0006001900050011002B
:1001300010003600370038001E001F00200021008C
:1001400022002300240025002600270014001A00A6
:100150000800150017001C0018000C001200130006
:1001600004001600070009000A000B000D000E0035
:100170000F0028001D001B000600190005001100DB
:1001800010003600370038001E001F00200021003C
:1001900022002300240025002600270014001A0056
:1001A0000800150017001C0018000C0012001300B6
:1001B00004001600070009000A000B000D000E00E5
:1001C0000F0028001D001B0006001900050011008B
:1001D00010003600370038001E001F0020002100EC
:1001E000220023002400250026002700FD377A582E
:1001F0005A000004E6D6B4460200210116000000B1
:10020000742FE5A3E001AF00D05D003D8889C6549E
:1002100036C3174FE4EFB08749EF031EE9B39332BB
:10022000366D2FCBC41EA4EF51B1C2362FDA41E494
:1002300088693EEEF195B8B591210667646C2A0491
:100240007ED08232BC6A801E2A88673CE6F43895EC
:1002500033209368E42822149AE31BCBDE6202BEAB
:10026000EF7C53FF17F7DA1F25EC2FB0FCAB42DC15
:10027000CE10D340084A7E6519671881CF63E7B96D
:10028000C1F21E09448AD78C8B34D786FD3B3F06CA
:100290004F274264F6A8141401B54904E05CB28EFD
:1002A00058A9C6C1F0F5AA946081143A6AC64849B3
:1002B00082BBB1FBA6165DD8A2E8E71A7BC28A8C86
:1002C00016ACBAE1EF77CC35C6552EC6A07B2A070F
:1002D000C4C163807E61C9106B317300CF535E72FD
:1002E0003497C1110001EC01B003000057D687809C
:1002F000B1C467FB020000000004595A010001006C
:100300006904691A9B1A0000020002006504691A58
:100310009B1A0000030001006A04691A9B1A00007E
:10032000040002004F04691A9B1A621A05000100BA
:100330006B04691A9B1A0000060002005104691A36
:100340009B1A0000070002006704691A9B1A00004C
:10035000080001006C04691A9B1A000009000200E1
:100360005304691A9B1A4A190A0002005504691AB3
:100370009B1A4A190B0002005704691A9B1A4A1962
:100380000C0002005904691A9B1A4A190D00020058
:100390005B04691A9B1A4A190E0002005D04691A6F
:1003A0009B1A4A190F0002005F04691A9B1A4A1926
:1003B000100002006104691A9B1A4A191100020018
:1003C0006304691A9B1A4A19120002006D04691A23
:1003D0009B1A0000130002006F04691A9B1A0000A8
:1003E000140001007104691A9B1A00001500000036
:1003F00000006F19E9190000000000000000000073
:100400002A2B28000000000000000000000000006F
:1004100000000029000000002C1E3420212224347A
:100420002627252E362D3738271E1F20212223244C
:1004300025263333362E37381F0405060708090AE8
:100440000B0C0D0E0F101112131415161718191A84
:100450001B1C1D2F3130232D350405060708090A02
:100460000B0C0D0E0F101112131415161718191A64
:100470001B1C1D2F3130354C000000000000000017
:10048000000000000000000000000000000000006C
:100490000000000000000000000000007E0F00D4FB
:1004A000FFFFFFC7000000781C03760069006100B1
:1004B0006C003A00660036003400630032006200CF
:1004C000330063000000140363006F006F006C00D2
:1004D0003600340030006C00700000000A036D002C
:1004E0002E006B00690000000403090409025B0090
:1004F000030100A0FA090400000103010100092121
:1005000011010001224400070581030800010904CC
:100510000100020300000009211101000122220054
:1005200007058203200001070503032000010904D9
:1005300002000103000000092111010001227B00DB
:100540000705840320000112010002000000084397
:100550004D40560001010203010660FF0961A1013F
:100560000962150026FF00952075088102096315B0
:100570000026FF00952075089102C005010902A11F
:100580000185020901A100050919012908150025A5
:100590000195087501810205010930093115812590
:1005A0007F95027508810609381581257F950175AB
:1005B000088106050C0A38021581257F950175080A
:1005C0008106C0C005010980A101850319012AB770
:1005D00000150126B700950175108100C0050C09B2
:1005E00001A101850419012AA002150126A0029586
:1005F0000175108100C005010906A101050719E078
:1006000029E71500250195087501810295017508F6
:1006100081010507190029FF150026FF00950675C1
:1006200008810005081901290515002501950575A2
:10063000019102950175039101C011241FBECFEFF6
:10064000DAE0DEBFCDBF11E0A0E0B1E0E4EDFBE613
:1006500002C005900D92A43BB107D9F724E0A4EBAA
:10066000B1E001C01D92A438B207E1F70E942F1536
:100670000C94C4350C9400008430B8F46430A8F4B1
:100680004A3098F450E09AE0699F400D511D1124C2
:10069000FA0198E2899FE00DF11D1124EE0FFF1F72
:1006A000E455FF4F85919491089581E090E008957D
:1006B0009C013A9521153F4150F5FC01EE27F17060
:1006C000BC0166277270AC01442754709C0122273C
:1006D000387094FF0EC080E1EF2B09F480E0672BA7
:1006E00009F08062452B09F08064232B89F0806833
:1006F000089581E0EF2B09F480E0672B09F0826018
:10070000452B09F08460232B19F08860089580E060
:100710000895CF93DF93EB010E945803FE010995E2
:10072000DF91CF910895CF93DF93EC01805E910923
:10073000089720F067E476E0209711F469E376E00B
:10074000CE010E9489038C2F0E949805DF91CF91E2
:100750000895CF93DF93EC010E94E105CE01805E06
:100760009109089720F06EE476E0209711F460E498
:1007700076E0CE010E948903DF91CF91089581E058
:1007800008950E94BF03089581E008950E94BF0369
:1007900008950E94C603089508950E94CC03089509
:1007A000A6E0B0E0E6EDF3E00C940C3549835A8303
:1007B0009E833091BB0189819A8131111AC03E819B
:1007C000332399F0222389F00E94320A182F682FD0
:1007D00089819A810E940E0A69817A81812F0E9403
:1007E000B8122696E3E00C9428350E94200A182FB0
:1007F000F3CF0E94320A69817A81F1CFFC01262F62
:1008000087819085009741F4408151816281738195
:10081000848195810E94D00308950F931F93CF93F5
:10082000DF93EC0161E00E94FE038C01BE010E9497
:10083000C103882351F0BE01C8010E943720817096
:10084000DF91CF911F910F91089580E0F8CFCF9362
:10085000DF93EC0160E00E94FE03BE010E94CD0325
:10086000DF91CF91089581E008950E9433040895A7
:10087000CF93C82F0E946B068C2F0E9435042FEF58
:1008800084E39CE0215080409040E1F700C00000EC
:10089000CF91089581E00E9438040E948F2D089521
:1008A00080E00E9438040E94A02D08950F931F93AA
:1008B000CF93DF93EC018B010E94E728882329F076
:1008C00061E0C8010E94FE03EC01B801CE010E9464
:1008D0005B2A811106C080E0DF91CF911F910F91BB
:1008E0000895B801CE010E94FC188823A1F3B80135
:1008F000CE010E94C903882371F3B801CE010E9482
:100900000F29882341F3B801CE010E944F1D88238F
:1009100011F3B801CE010E94AD298823E1F2F8015C
:100920008581882361F0C330FCE7DF07E9F058F4E4
:10093000C115ECE7DE07A9F0C130DC47B9F0C8010A
:100940000E94C403C9CFCB358CE7D807A9F0CC35BA
:10095000ECE7DE0771F0CA35DC4789F70E94E60F45
:10096000EECF0E944A04B7CF0E94EE0F0E945004BF
:10097000B2CF0E94DC0FE3CF0E94EA0FE0CFCF930B
:10098000DF93EC0161E00E94FE03BE010E94560469
:10099000DF91CF9108950E94C02C0E940305089515
:1009A0000E9407050E94C52C0895982F92959F706C
:1009B00011F0892F94E0282F2695269511F09E5F3F
:1009C000822F869509F09F5F892F0895089581E011
:1009D00008950895CF93DF93D82F0E94E704C82F7E
:1009E000882319F08D2F0E94E9048C2FDF91CF917D
:1009F00008950895CF93C82F0E94E6048C2F0E947B
:100A0000EA04CF91089580E00E94FA0408950E94BC
:100A1000962B0E94FA040895CF930E94962BC82F1C
:100A20008091B6018C1779F0C093B6010E94502DC9
:100A30006093B7017093B8018093B9019093BA01A4
:100A40008C2F0E94FA04CF910895019708F408951D
:100A5000EFE9FFE03197F1F700C00000F6CFAFE01B
:100A6000B0E0E5E3F5E00C940B354A875B876C87D3
:100A70007D878E879F87882349F08091BC01909164
:100A8000BD0101969093BD018093BC018F858111BA
:100A90000E94C30E1F821886198686E0FE013A96D0
:100AA000DE01119601900D928A95E1F78091EC0399
:100AB00082FF12C08091510490915204892B61F001
:100AC0000E947F0E882319F082E00E94B00F0E94DE
:100AD0005B0E81110E94300F8D8181110FC0098141
:100AE0001A812B813C814D815E816F81788589855A
:100AF0000E94CF0D2F96E4E00C942735CE0101968D
:100B00000E940D048111EBCFF5CFFC01248121302F
:100B100021F4808191810E945F0A0895662329F063
:100B20000E9480250E94652608950E94EC25FACF38
:100B3000CF93C82F882399F08CEF8C0F813A88F4DB
:100B40008C2F0E941B2C882329F08C2F0E945E2C56
:100B50000E94810F8C2F0E94562C0E94810FCF91F2
:100B6000089580E28C0F883048F4C77081E001C09E
:100B7000880FCA95EAF70E94A30EEFCFEBE5EC0FC2
:100B8000E33040F4F0E0E65AFE4F808190E00E94AE
:100B9000BC2BE5CFE8E5EC0FEB3150F4F0E0EE0FC5
:100BA000FF1FEC5DFE4F808191810E94E12BD7CF2A
:100BB00083E38C0F833198F661E08C2F0E948E05C1
:100BC000CECF882381F19CEF980F913A28F40E94B0
:100BD0005E2C0E94810F089590E2980F983050F497
:100BE000877091E001C0990F8A95EAF7892F0E94DA
:100BF000A90EEFCF9BE5980F933028F490E080E0AA
:100C00000E94BC2B089598E5980F9B3128F490E042
:100C100080E00E94E12B089593E3980F933118F43C
:100C200060E00E948E0508951F93CF93DF93182FE5
:100C3000EB010E949805209739F4812F0E94E1056D
:100C4000DF91CF911F9108958FE99FE00197F1F710
:100C500000C000002197EFCF60916F047091700485
:100C6000893321F060916D0470916E040E94140626
:100C70000895882321F00E94A30E0E94810F0895F9
:100C8000882321F00E94A90E0E94810F08958823D5
:100C900021F00E94B60E0E94810F0895882321F052
:100CA0000E94BC0E0E94810F089590E080E00E9497
:100CB000BC2B90E080E00E94E12B0E94C30E0E94BA
:100CC000810F0E9481260E94652608950E94662C4D
:100CD0000E94550608950E94B00E0E94660608956F
:100CE00092959F70963091F058F4925F9F70923079
:100CF00058F4803F19F030F4883E30F481E00895D4
:100D00009A5FF4CF843FD1F380E00895883EB0F33A
:100D1000813FD1F7F3CFFC018481882371F0878173
:100D20009085009729F00E949A110E9470060895FC
:100D3000808191810E945F0AF8CF80E00895B0E041
:100D4000A0E0E5EAF6E00C9406356C01EB01FC014D
:100D50001581F680F2949FE0F9220E94990EE82E08
:100D60008823F9F0E12E1123E1F08D2F807F80346C
:100D700061F080E28C0F883010F18D2F807E803200
:100D800021F4C230E0F0FF20D1F08091EC0382FF2B
:100D900016C082E00E94B00F0E94990E91E0E82EEA
:100DA000E926BD2EB2948FE0B822FBE0FB1508F4D3
:100DB00063C0EB2DF0E0EA53FA4C0C94F034E12CD4
:100DC000F0CF0D2F0F708D2F807F11F00295007FD7
:100DD000112399F0002359F080E28C0F883010F035
:100DE000C11107C0802F0E94A30E0E94810F8C2F7B
:100DF0003BC0802F0E94B60EF8CF8C2F0E94E105D9
:100E00000023D1F180E28C0F883010F0C11104C0B2
:100E1000802F0E94A90E03C0802F0E94BC0E0E944A
:100E2000810F2AC00D2F0F708D2F807F803211F01F
:100E30000295007FCC2351F0C13009F480C011230A
:100E400009F48CC0FF2009F445C0D1CF8091EC0398
:100E500082FD3CC0112359F0002329F0802F0E940D
:100E6000A30E0E94810F80E00E94980505C080E0DB
:100E70000E94E1050111CCCFEB2DE850FF0B349718
:100E800020F40E94962B0E94FA04CE010E94700664
:100E9000811189C11092BD011092BC01EE2089F030
:100EA0000E947B0E80FD0DC0F60115820E94750E1A
:100EB0000E948209C6010E9414090E94750E0E94B8
:100EC0008E09CDB7DEB7E9E00C9422351123E9F0A5
:100ED000F11004C0802F0E943906CECF21E0F2121B
:100EE00004C0802F0E94E90EC7CF80916B0482302E
:100EF00018F28F11C1CF802F0E943906802F0E94D7
:100F0000000F802F0E94CD0EB7CFF1100AC0802FA6
:100F10000E944006802F0E94000F802F0E94D90E51
:100F2000ABCF80916B04823008F4A6CF31E0F3128E
:100F3000A3CF0E94A00E802309F49ECFE8CF80911A
:100F40007104112321F08F1508F496CFC3CFF81642
:100F500008F092CF802F0E9440068ECFFF20D1F361
:100F600080916F0490917004C93321F080916D04D9
:100F700090916E040E9425058C2F0E94E1057CCF84
:100F80008D2F86958695837061F0813009F074CF3E
:100F9000CE019370111102C080E090E00E94E12B1D
:100FA0006BCFCE019370111102C080E090E00E94DF
:100FB000BC2B62CF612F8C2F0E948E055DCF8D2FB1
:100FC000837081F5111158CF4C2F4295469547708B
:100FD000440F440F8C2F8F70042E01C0880F0A9489
:100FE000EAF72C2F2071C4FF07C02FE030E001C0CA
:100FF000220F4A95EAF720959D2F96959695937026
:10100000822B923049F058F4913019F00E945E0919
:1010100033CF0E94580930CF0E9464092DCF0E941F
:1010200055092ACF8695112311F08D2F81708823C1
:1010300009F422CF4C2F429546954770440F440F38
:101040008C2F8F70042E01C0880F0A94EAF72C2F82
:101050002071C4FF07C02FE030E001C0220F4A9585
:10106000EAF720959D2F969596959370822B923056
:1010700049F058F4913019F00E94AD09FDCE0E945C
:10108000A709FACE0E94B309F7CE0E947009F4CEE8
:101090000D2F0F70112329F0802F0E9482098C2FB1
:1010A0001ACF8C2F0E944006802F0E948E09E4CE1A
:1010B000C23F51F160F4C03FB9F0C13F81F011234C
:1010C00009F46CC0F11093CE8D2F8F7121C0C33FF6
:1010D00011F1C43FA1F78091EC0382FD26C08D2F52
:1010E0008F71112311F314C080917104112341F009
:1010F000F81608F0C1CE8D2F8F710E949B09BCCECF
:101100008F1508F4B9CEF7CF8D2F8F711111CDCF78
:101110000E948209B1CE112329F08D2F8F710E9478
:101120007909AACE0E947509A7CE80916B048230FE
:1011300010F11123B1F00E947B0E843041F40E9423
:10114000A60F8D2F8F710E948E09E12C95CE809174
:101150006B0463E0F816C8F78D2F8F710E94880F1B
:10116000F4CFF81620F00E94A60F64E0F5CF81E0DE
:101170000E94B00FEACF112331F063E08D2F8F7101
:101180000E94880F79CE81E00E94B00F81E08F1518
:1011900008F072CE82E00E94B00F6ECEF110E0CE69
:1011A0008D2F8F7182CF112319F0F11073CE76CE6F
:1011B000F11070CE20E0F60140815181628173818F
:1011C000848195810E94D003B6010E94B51B8823BB
:1011D00009F460CE8091BC019091BD01029709F0A5
:1011E00059CE8C2F0E942C0655CE0F931F93CF9370
:1011F000DF93EC018F819885009781F00E949A110E
:101200008C010E94B9090E945409B801CE010E94C4
:101210009F06DF91CF911F910F9108956881798189
:101220008D810E946A0AECCFCF93DF93EC018C8111
:10123000882399F0CE010E94BF04811111C00E9441
:10124000990E882351F08D81882339F08091EC0329
:1012500082FF03C082E00E94B00FDF91CF9108951A
:10126000CE010E94F508CE010E942704F6CFA6E029
:10127000B0E0EDE3F9E00C940D352696E2E00C9435
:101280002935A9E0B0E0E7E4F9E00C940B352996A4
:10129000E4E00C94273508950E944B0908950E94BC
:1012A0004C098093CE01089508950E944F09089536
:1012B0009091CE01892B0E944F0908959091CE0103
:1012C00089230E944F0908959091CE0189270E9499
:1012D0004F0908950E944B0908950E946A090895D4
:1012E0000E946D098093CD01089580E00E947009ED
:1012F000089591E001C0990F8A95EAF7892F0E941D
:101300007009089521E030E001C0220F8A95EAF7C4
:101310008091CD01822B0E947009089521E030E078
:1013200001C0220F8A95EAF720958091CD01822392
:101330000E947009089521E030E001C0220F8A95D3
:10134000EAF78091CD0182270E947009089590915B
:10135000CD01892B0E94700908959091CD018923B8
:101360000E94700908959091CD0189270E9470090B
:1013700008950895262F277091E001C0990F2A95AE
:10138000EAF723E0769567952A95E1F7FB01EE0FE2
:10139000FF1FE60FF71FE40FF51F50E040E0682F36
:1013A00070E08191DF0111979B01042E02C03695F8
:1013B00027950A94E2F721702195282729232827C9
:1013C0002C934F5F5F4F4330510559F70895A82F75
:1013D000A77023E0969587952A95E1F7FC01EE0F1B
:1013E000FF1FE80FF91FE60FF71F50E040E080E015
:1013F000219130E00A2E02C0369527950A94E2F733
:1014000021703327042E01C0220F0A94EAF7822BA1
:101410004F5F5F4F4330510559F70895262F9430A1
:1014200070F48A3060F4682F70E08AE0989F600D55
:10143000711D11244EEB51E0822F0E94BA090895CC
:10144000292F943068F48A3058F490E06EEB71E004
:101450003AE0239F800D911D11240E94E709089511
:1014600080E00895CF92DF92FF920F931F93CF9366
:10147000DF936C010091CD018091CE01082BC3E078
:10148000D0E010E0FC2EC8010C2E02C09595879587
:101490000A94E2F780FD0CC02197A0F7F12C8F2D64
:1014A000DF91CF911F910F91FF90DF90CF90089522
:1014B000B6018C2F0E94D312019771F3F0CFCF9316
:1014C000DF93EC010E94320ABE010E94D312DF9129
:1014D000CF9108951F93CF93DF93EB019091BB01C0
:1014E000992339F0CB010E945F0ADF91CF911F91C0
:1014F0000895882369F0CB010E94320A182F682FC3
:10150000CE010E940E0ABE01812F0E94D312EDCFA0
:10151000CB010E94200A182FF6CFE1E0F0E0DF01B6
:1015200002C0AA0FBB1F6A95E2F7BD01DF0102C02E
:10153000AA0FBB1F4A95E2F76A2B01C0EE0F2A954E
:10154000EAF7962F9823961302C08E2B0895E09504
:101550008E230895242F462F682F8091CD010E945D
:101560008D0A0E9470090895FF920F931F93CF93E5
:10157000DF93C091CF0189E0F82E8091D0018C13C8
:1015800005C0CDB7DEB7E5E00C942635D0E0FC9E73
:10159000F001FD9EF00D1124EF52FE4F00811181EC
:1015A00022813381448155816681778180850E94C3
:1015B00041092196C770E1CF0F931F930091190243
:1015C00010911A0220911B0230911C0240911D02C1
:1015D00050911E0260911F027091200280912102A1
:1015E0000E9441091F910F910895482F2091CF012A
:1015F0009091D00159E0291302C080E0089530E0B5
:10160000529FF001539FF00D1124EF52FE4F818144
:10161000681306C08081481303C085818111EECF15
:101620002F5F3F4F2770E7CFB0E0A0E0EAE1FBE09B
:101630000C94083580911F02807F09F054C080917E
:101640001E02882309F44FC0E091CF0189E0D82E13
:101650008091D0018E1709F446C00E2F10E0ED9D49
:10166000F0011124EF52FE4F8481882309F440C019
:10167000D09EE001D19ED00D1124FE01EF52FE4F0D
:10168000918180911A02981333C090818091190240
:1016900098132EC0858181112BC0E280F380809148
:1016A0001B0290911C02E81AF90A60E089E192E0BD
:1016B0000E94FE0369E172E00E94DC18E816F90658
:1016C000B8F480911F028F70806180931F02C9520D
:1016D000DE4F88818F708061888389E192E00E946B
:1016E00014090E94B40ACDB7DEB7E7E00C942435A4
:1016F000F8013196E770ACCF2F923F925F926F92D4
:101700007F928F929F92AF92BF92CF92DF92EF9291
:10171000FF920F931F93CF93DF93CDB7DEB76897F8
:101720000FB6F894DEBF0FBECDBF8C0186E0F80186
:10173000DE01539601900D928A95E1F7D801149637
:101740007C9014971596EC9089E1282E82E0382E33
:1017500080911D0281113AC071101BC0FF24F394C7
:101760008F2D68960FB6F894DEBF0FBECDBFDF9108
:10177000CF911F910F91FF90EF90DF90CF90BF908E
:10178000AF909F908F907F906F905F903F902F9041
:101790000895EE20B9F0C8010E948B06F82E882328
:1017A00089F089E0F801A9E1B2E001900D928A95F3
:1017B000E1F789E192E00E9485050E94140B0E94E6
:1017C000DC0ACECFC8010E941409C8CFF80160809E
:1017D0005180C280D38060E089E192E00E94FE03E4
:1017E0005C01F0901E0280911B0290911C02FF2070
:1017F00009F433C14601881A990A60E089E192E050
:101800000E94FE0369E172E00E94DC1888169906C6
:1018100008F0BEC0772009F4A1CF80911F02382FB5
:10182000307F20911A02D80111969C9111973111A5
:101830005CC0291321C0209119029C9129131CC05E
:10184000409120025091210217962D913C91421710
:10185000530791F4E11095C18F70806180931F024E
:101860000E94DC0A89E192E00E94140980911F0223
:10187000F8018683F12C74CFE11083C1652D862D8C
:101880000E94F50A882309F45BC169E172E0C50191
:101890000E94AA1B882309F453C189E192E00E94A7
:1018A000140989E0E9E1F2E0DF011D928A95E9F788
:1018B0000E94DC0ADFCF2A5F2F70223078F0C80147
:1018C0000E941409EF2C5BC1992319F0882309F4B5
:1018D00056C1805E883008F452C1F1CF803F08F4D1
:1018E0004EC1815F833058F74AC1291320C020912F
:1018F00019029C9129131BC0409120025091210292
:1019000017962D913C9118974217530781F4E110D7
:101910000EC016968C93C8010E94140989E0F80144
:10192000A9E1B2E001900D928A95E1F748CFC80194
:101930000E948B06882309F445CFEE2009F442CF9C
:1019400080911F028032B8F02091190230911A0262
:101950003B872A87DD86CC8690911D029E871F8655
:10196000888B80912002909121029A8B898BCE01E5
:101970000A960E94140989E0F801A9E1B2E00190F9
:101980000D928A95E1F70E94140B0E94DC0AE6CEC4
:1019900080911F02982F907FA1F46C2DDE8ACD8A52
:1019A000462D552D7E89872D9E2D0E94370989E170
:1019B00092E00E94140989E0F10111928A95E9F7F9
:1019C00077CF772009F4CACE20911A02D801119658
:1019D0009C91119729131DC0209119029C912913E4
:1019E00018C0409120025091210217962D913C91F0
:1019F00018974217530769F4E1100BC016968C93A1
:101A0000C8010E94140989E0F10111928A95E9F751
:101A1000A7CEC8010E948B06882309F4D3CEEE20FE
:101A200009F4D0CE80911F02803208F4A4CF209117
:101A3000190230911A023A832983DC82CB82909179
:101A40001D029D831E828F8380912002909121022E
:101A500099878887CE0101968CCF5601A81AB90ABA
:101A600060E089E192E00E94FE0369E172E00E9479
:101A7000DC18A816B90608F053C0772009F46ECE1A
:101A8000FE2CEE2009F49ECE90911A02D8011196F8
:101A90008C911197981336C0909119028C919813DC
:101AA00031C0209120023091210217968D919C9196
:101AB0002817390739F580911B0290911C02C81A2A
:101AC000D90AB8ECCB16D104A0F490911F0290FD76
:101AD00010C0907F71F080911F02F8018683903FC3
:101AE00009F419CF982F907F905F8F70892B868390
:101AF00012CF89E0F801A9E1B2E001900D928A9538
:101B0000E1F72ECEC8010E948B06811134CF80915F
:101B10001F02816080931F02C8010E94140920CE19
:101B20006C2DDE8ACD8A462D552D7E89872D9E2DE2
:101B30000E94370989E0D1011D928A95E9F73FCECD
:101B4000652D862D0E94F50AE82E811193CE6B8AB1
:101B50005C8A8B899C890E945F0A292F22952F70AD
:101B6000243008F0A8CE9F70223008F4ADCE99231F
:101B700009F4AFCEF8019681907F09F0AACEFE2C31
:101B8000EFCD80911F02816080931F0269E172E0B6
:101B9000C5010E94AE1B882309F46CCE7ECEA2E163
:101BA000B0E0E5EDFDE00C940A350A871B872C8731
:101BB0003D874E875F87688B798B8A8BCE010A962B
:101BC0000E947C0B8823C9F04E85442351F00A857E
:101BD0001B852C853D855F85688979898A890E9466
:101BE000410989E0F82E8091CF019091D0018913AD
:101BF0003DC06296E5E00C94263589E0FE013A96F8
:101C0000DE01119601900D928A95E1F78E85882369
:101C100041F32091D00130E0C901019687709927E6
:101C20004091CF014817190699F099E0929FD00191
:101C3000939FB00D1124AF52BE4FFE01319601901B
:101C40000D929A95E1F78093D0010E94B40AC9CF12
:101C50000E946B061092D0011092CF0189E0E9E159
:101C6000F2E0DF011D928A95E9F7BBCF8F9DC0019D
:101C700011248F529E4F0E947C0B882309F4B9CF08
:101C8000E091CF01FE9EF0011124EF52FE4F008142
:101C900011812281338144815581668177818085DC
:101CA0000E9441098091CF0190E0019687709927A9
:101CB0008093CF0198CF8091510490915204892B49
:101CC00089F00E94442D20912D0230912E02AC010A
:101CD000421B530B81E02091510430915204421772
:101CE000530708F480E08170089580912C02869556
:101CF00086958695089580912C02877008950E949C
:101D0000442D20912A0230912B02821B930B2091AB
:101D10005104309152048217930748F080912C02AD
:101D200082FB882780F991E089278170089580E0FF
:101D3000FCCF90912C02977081E009F480E0089527
:101D400080913A02089590913A02892B80933A0249
:101D50000895809590913A02982390933A020895BD
:101D600010923A02089580913902089590913902B3
:101D7000892B809339020895809590913902982398
:101D8000909339020895109239020895809130029B
:101D9000089508950E94C90E089590912F02292F49
:101DA0002823281729F0892B80932F020E94CA0E1E
:101DB000089590912F02292F282331F080958923AF
:101DC00080932F020E94CA0E089508950E94E50E86
:101DD0000895CF93C82F809130028C238C1771F017
:101DE0000E94442D90932E0280932D028091300208
:101DF0008C2B809330028C2F0E94E60ECF91089599
:101E000090913002292F282381F080958923809397
:101E10003002882359F00E94442D90932E02809323
:101E20002D02809130020E94E60E089590E080E03D
:101E3000F4CFCF93C82F8091EC0382FF0FC0809125
:101E400030028C1759F00E94442D90932E028093FB
:101E50002D02C09330028C2F0E94E60ECF91089580
:101E600080913002882349F01092300210922E02A5
:101E700010922D0280E00E94E60E08950F931F93AA
:101E8000CF93DF930091000110910101C0913A02BC
:101E900080913902C82B80913002882399F080917B
:101EA000510490915204892B29F00E945B0E8111FC
:101EB0000E94300F80913002C82B0E94062C8111A5
:101EC0000E94300FF801C083C0910001D091010140
:101ED00048E050E062E272E0CE010E943D35892B7D
:101EE00059F088E0FE01A2E2B2E001900D928A95DD
:101EF000E1F7CE010E94A32BDF91CF911F910F91AB
:101F000008950E943E0F089508950E94840F089539
:101F10009091EC0392FF17C098E0899F90011124E3
:101F2000622B60932C020E9482090E94442D9093A0
:101F30002B0280932A0280912C02869586958695A5
:101F40000E94850F08950E948209089510922C0224
:101F500010922B0210922A0280E00E94850F0895B1
:101F600090912C028095892380932C02282F277032
:101F700069F4891759F09091EC0392FF07C0869598
:101F8000869586950E948E090E94A60F08959091CD
:101F9000EC0392FB222720F9281769F080FB92F9C5
:101FA0009093EC038091EB039091EC030E9410104E
:101FB00082E00E94B00F08958091EC0382FB882795
:101FC00080F991E089270E94C70F089581E00E945F
:101FD000C70F089580E00E94C70F08956FEF7FEF4D
:101FE00090E080E00E94A635089590E080E00E9495
:101FF0007235853E9E4F19F40E94F629089580E0BF
:10200000089582E090E00E946A35089583E090E0B0
:102010000E946A35089584E090E00E947235089528
:10202000BC0184E090E00E94A6350895AB01BC019C
:102030008FE090E00E949A350895AB01BC0183E1E6
:1020400090E00E949A35089560E070E0CB010E9414
:102050001D10089560E070E0CB010E9416100E94F0
:1020600024100895A8E0B0E0E8E3F0E10C940D3509
:1020700065EE7EEF90E080E00E94A63560E082E0B1
:1020800090E00E94883581E08093CE0161E083E09A
:1020900090E00E94883560E074E184E090E00E9466
:1020A000A63560E086E090E00E94883560E087E039
:1020B00090E00E94883540E050E0BA0188E090E06E
:1020C0000E949A3560E083E290E00E94883560E0EB
:1020D0008CE090E00E94883560E08DE090E00E9406
:1020E000883519821A821B821C821D821E821F82E1
:1020F000188648E050E067E170E0CE0101960E944A
:10210000783540E050E0BA018FE190E00E949A35C6
:1021100080E00E940F2A0E943E2A0E942A102896E0
:10212000E2E00C9429350E9432100895A6E0B0E058
:10213000ECE9F0E10C940B350E94442D8C01809168
:102140003B0290913C028017910781F019821A821C
:102150000E94442D682F49815A81792F80E090E0B8
:102160000E942F0510933C0200933B022696E4E068
:102170000C9427350E94502D6093490270934A02B7
:1021800080934B0290934C026093450270934602F9
:1021900080934702909348020895089508950E94FD
:1021A000CD10089508950E94D210089589EC93E10E
:1021B0000E9446150E94C4150E94B61A0E94CE10B5
:1021C0000E94CF10089581E008950E94E3100895C1
:1021D0000E94E3100895089508950E94EB100E9454
:1021E000EC1008950E94F50F811102C00E94931017
:1021F0000E94011080934D020E940B109093EC03FB
:102200008093EB030E94811E0E9406100E945509D4
:102210008091CD010E946D0908950E943B2D0E947E
:102220004E2A0E949F140E94F2100E94F9040E94FC
:10223000D31008950E9471290E94F01F0E94141D5E
:102240000895A6E0B0E0E7E2F1E10C9401350E94C8
:10225000E51081110CC00E9496100E941A110E9474
:10226000A3260E940C052696EEE00C941D350E94D4
:10227000B5142DE3822E22E0922E640110E0F601C7
:10228000E190F1906F01812F0E94E9131F5F1430DC
:1022900009F44BC0E816F90691F380914D0281FDD7
:1022A0000E94F2130E94E810782E10E066246394D6
:1022B000812F0E94E9137C01F401A190B1904F019C
:1022C0008A159B0561F1A826BF2400E0CC24C394A5
:1022D000D12CC5018C219D21892BC1F07720B1F033
:1022E00009831A830E94442D9C838B836D8221E095
:1022F000C7018C219D21892B09F420E049815A8155
:102300006B817C818D81922F0E942F050F5FCC0CF9
:10231000DD1C0A30F1F6F4013297F182E0821F5F92
:10232000143031F60E94BA1098CFE816F90609F079
:10233000B4CF91CF1F93CF93DF930E94D812EC01BB
:10234000C11580E5D807F0F5C11580E4D80708F07D
:102350009CC0C03ED10520F5CD3CD10508F082C01F
:10236000C83AD10578F4C53AD10508F073C0C13038
:10237000D10519F1209709F1C430D105F0F4D0E06E
:10238000C0E01BC0C33CD105D0F7C85AD0E0CC0F89
:10239000DD1FC35ADE4F0990D881C02DD4640DC013
:1023A000C11580E2D80708F0D1C0C11581E0D80777
:1023B00008F05AC0C83ED10510F7CE01DF91CF9189
:1023C0001F910895C03682E5D80718F5C03482E51C
:1023D000D80708F06BC0C03282E5D80708F05FC0AC
:1023E000C11582E5D80708F497C02C2F26952695AD
:1023F00080E2289F900111248C2F8370C1E0D0E0EF
:1024000002C0CC0FDD1F8A95E2F7C22BD32BDD680B
:10241000D4CFC03A82E5D80760F4C03882E5D80747
:1024200008F459C0CF71D0E0DC2FCC27C46FD06A3C
:10243000C4CFC03C82E5D80708F462C0C03E82E544
:10244000D80708F09CCFDC2FCC27CC27DF71C06FDA
:10245000D06AB3CFC55AD0E0CD56DE4FC881D0E0A8
:10246000D064ABCFD065A9CF8D2F0E947A13182FDF
:10247000CE0199270E94D812C12FD0E0DC2FCC27A3
:10248000CC27DF71C82BD92B98CFCE0199270E947A
:10249000D812CC27DF70C82BD92BD06A8ECFCF7142
:1024A000D0E0DC2FCC27C16FD06A87CF2C2F2695A8
:1024B0002695277080E2289F900111248C2F83702D
:1024C000C1E0D0E002C0CC0FDD1F8A95E2F7C22B3D
:1024D000D32BDC6872CF2C2F26952695277080E2AF
:1024E000289F900111248C2F8370C1E0D0E002C09E
:1024F000CC0FDD1F8A95E2F7C22BD32BDA685DCFB4
:102500008C2F8F710E947A13C82FD0E0DC2FCC273C
:10251000CC27DF71D06251CF8C2F8F710E947A133C
:1025200055E0D695C7955A95E1F7CF70D0E0DC2FEE
:10253000CC27282F30E084FF05C044E0220F331F52
:102540004A95E1F7C22BD32BD06937CF8D2F8F71EE
:102550000E947A13182FCE0199270E94D812C12FFA
:10256000D0E0DC2FCC27CC27DF71C82BD92BD2CFE2
:10257000462F20911F0330912003232B89F4703FB5
:1025800039F4603F69F480914D0490914E040895B0
:10259000743030F46A3020F4672F0E94AF2308951E
:1025A00090E080E008950E94B8120E949A11089568
:1025B00082389105B9F1B0F48133910509F47DC0F9
:1025C00048F48932910509F46DC08A32910509F405
:1025D0007BC008958533910509F45FC08933910567
:1025E00009F10895833E9105D9F138F4803E9105B3
:1025F00029F1823E910579F10895863E9105D9F140
:10260000873E910509F43EC0843E910541F5209135
:10261000EC0321FF24C08091EB0384FD19C087EEF9
:1026200090E008952091EB03237009F05AC02091A7
:10263000EC0323FF14C089E290E008952091EB039E
:1026400020FD38C03091EC0330FF09C024FF43C0A7
:1026500090E080E008952091EB0322FDF7CF0895EC
:102660002091EB0322FD3AC03091EC0330FD39C0DC
:1026700024FFF5CFEDCF2091EB0323FFF0CF24FD16
:10268000E7CFCDCF2091EB0323FD2EC03091EC039B
:1026900031FFEECF84EE90E008952091EB0325FF0B
:1026A000DECFC9CF2091EB0325FD21C02091EC03A3
:1026B00023FFD5CF89E390E0D2CF2091EB0326FF13
:1026C000CECF8AE290E008952091EB0326FFC7CF9A
:1026D00081E390E0089583EE90E0089582EE90E02B
:1026E000089580EE90E0089586EE90E0089585E3E9
:1026F00090E008959091EB0392FF10C041E0282FE5
:102700002471243009F040E031E0282F287128306E
:1027100009F030E0431711F02CE0822793FF10C03E
:1027200041E0282F2471243109F040E031E0282FC6
:102730002871283109F030E0431711F02CE082278E
:102740003091EC0330FF10C051E0282F217121306F
:1027500009F050E041E0282F2871283009F040E0CE
:10276000541711F029E0822731FF10C041E0282FD3
:102770002171213109F040E031E0282F2871283102
:1027800009F030E0431711F029E0822794FD877E9D
:10279000089580E0089508950E94CB130895089548
:1027A0000E94CF130895E82FF0E0EE0FFF1FEB50CB
:1027B000FC4F21E030E002C0220F331F6A95E2F7A0
:1027C000808191812823392381E0232B09F480E043
:1027D0000895E82FF0E0EE0FFF1FEB50FC4F8081D3
:1027E00091810895089580EA8A95F1F7089500C0CF
:1027F00008950E94F3130895F894E82FE295EF707E
:10280000F0E031A1282F2F7081E090E001C0880F07
:102810002A95EAF7982F9095932391A392A1892B5B
:1028200082A378940895CF93DF9381E90E94FC13EB
:1028300080E90E94FC1383E30E94FC1382E30E9460
:10284000FC13C6E9D1E089918F3F11F00E94FC137F
:1028500081E0C03AD807B9F7DF91CF910895AF92E0
:10286000BF92DF92EF92FF920F931F93CF93DF936C
:102870008C01D62EC62FD0E0CE0180569E4F7C0113
:10288000FC0120812F3F09F44DC0F894E22FE2951E
:10289000EF70F0E031A12F7081E090E001C0880F6F
:1028A0002A95EAF7932F982B91A392A180958923DB
:1028B00082A378940E94F713E6E9F1E040EA51E040
:1028C00021E030E0B12CA12C61916F3FA9F1A62F3E
:1028D000A295AF70B0E090968C9190E06F7002C0BE
:1028E000959587956A95E2F780FD26C0C901A82ACB
:1028F000B92A220F331F4E175F0731F7F701808186
:102900008F3F11F00E94FC1361E0A114B10409F49F
:1029100060E08D2D0E94F913CC0FDD1FC00FD11F79
:10292000B982A882DF91CF911F910F91FF90EF9014
:10293000DF90BF90AF90089590E080E0D8CF0E94E4
:10294000131488E0E5EFF3E0DF01982F1D929A95CC
:10295000E9F7EDEEF3E0DF011D928A95E9F784E0F7
:102960000E94F0140E94CC130895A8E0B0E0EBEBB5
:10297000F4E10C940A358E010F5F1F4F88E0F801D7
:1029800011928A95E9F7F12C6F2DC8010E942F143E
:10299000F394F4E0FF12F8CF48E050E0B8018DEE78
:1029A00093E00E943D3521E0009709F420E0892B57
:1029B00041F088E0F801ADEEB3E001900D928A9508
:1029C000E1F744E065EF73E08DEE93E00E94F114CF
:1029D000182F0E94D013812F2896E5E00C942635FD
:1029E0000895B0E0A0E0E7EFF4E10C9407356C0146
:1029F0007B01042FC22F222379F081E080935002C3
:102A00000E94442D90934F0280934E0280E0CDB7F8
:102A1000DEB7E8E00C942335D0915002DD23B1F30A
:102A200080914E0290914F020E945C2D059770F3A9
:102A300010E0000F111FA801B601C7010E943D352B
:102A4000892B31F0A801B601C7010E944A35CD2F6C
:102A5000109250028C2FDBCF0E94211108950E940A
:102A6000DD2C0E94302F0E94D6100E944A2F0E9417
:102A70000D110E94572F0E945C2F0E942C150E945E
:102A8000762F0E94FE2D0E94ED10F5CF9093B50198
:102A90008093B401089581152CE7920741F42091A9
:102AA000210330912203232B11F490E080E008955C
:102AB000E9E8F2E090E080E065EB78E141E458E19C
:102AC0002EEC37E1778366835187408733872287EF
:102AD00097878687019670968830910599F70895B3
:102AE000CF92DF92EF92FF921F93CF93DF93CDB7F8
:102AF000DEB72A970FB6F894DEBF0FBECDBFEDEF5D
:102B0000F3E080E5DF011D928A95E9F7E1E5F2E067
:102B100088E3DF011D928A95E9F78DEFC82E83E0E7
:102B2000D82E7F0110E0F701D182C082BE016F5F15
:102B30007F4F812F0E948F22892B79F488E0FE013C
:102B40003196D60101900D928A95E1F789859A8593
:102B5000D70113969C938E931297BAE0CB0ED11C9B
:102B6000E7E0EE0EF11C1F5F1830E9F62A960FB66B
:102B7000F894DEBF0FBECDBFDF91CF911F91FF90C4
:102B8000EF90DF90CF9008950E9458150E94701525
:102B90000895CF92DF92FF920F931F93CF93DF930D
:102BA000CDB7DEB72A970FB6F894DEBF0FBECDBF04
:102BB0008C01603269F5DC011196EC911197EE30D1
:102BC00038F5F0E0EE52FA4C0C94F03488E0ECE189
:102BD000F1E0DE01119601900D928A95E1F780E215
:102BE000F80111928A95E9F786E0D8018C93119645
:102BF0001C92119712961C92129713961C9213977F
:102C000088E0FE013196149601900D928A95E1F7C5
:102C10002A960FB6F894DEBF0FBECDBFDF91CF91DD
:102C20001F910F91FF90DF90CF90089580E1F80100
:102C3000808381E0818312821382EACF13968C9184
:102C40001397682F70E0762F662712968C91860F67
:102C5000972F911D092E000CAA0BBB0B45E0880F86
:102C6000991FAA1FBB1F4A95D1F7AC01BD01405E59
:102C70005F4F6F4F7F4F481759076A077B0740F236
:102C80008031E1E09E07A105B10510F64131F1E088
:102C90005F076105710520F040E151E060E070E000
:102CA000481B590BBC0164517E4FC8010E9434354A
:102CB000AFCF40E250E06FEF70E00E94533580915B
:102CC0002103D8018C9380911F0311968C93119747
:102CD00012961C92129713961C92139781E01496E9
:102CE0008C93149715968C9393CF81E090E09093FA
:102CF000200380931F0382E390E090931E03809350
:102D00001D030E94442D90931C0380931B0380CFCE
:102D100080911F0390912003892B91F160E080E066
:102D20000E94D313D82E61E081E00E94D313F82EC5
:102D300080911B0390911C030E945C2D85369105A8
:102D400050F1DD2041F1FF2031F10E94442D90939C
:102D50001C0380931B0380911D0390911E03019718
:102D600090931E0380931D03892B51F4109220032E
:102D700010921F0381E090E090932203809321033F
:102D800080912103F801808380911F0381838091CA
:102D90001D0382833DCF82E390E090931E038093D6
:102DA0001D03EECF109222031092210331CF40E297
:102DB00050E0BC0112968D919C910E942B1B28CF54
:102DC000BC016F5F7F4F4FE150E0FC018281938136
:102DD0000E945B1BD8018C931BCFBC016C5F7F4FA3
:102DE0004CE150E0FC01828193810E94761BF2CF7E
:102DF0000E94DB1A0DCFFC018281823009F447C0AA
:102E0000E0F48823D9F1813009F002CF13968C9138
:102E10002AE0F22EFE0131966F01DF01EF2D1D92A7
:102E2000EA95E9F7B6010E946722D8018D93F60171
:102E300001900D92FA94E1F7EBCE833009F454C07F
:102E4000843009F0E5CE1396FC908AE03496DE01DA
:102E5000119601900D928A95E1F789859A850E94D5
:102E60004B159A878987BE016F5F7F4F8F2D0E9418
:102E7000A322F80180830E947015CACE80E21D92C1
:102E80008A95E9F788E0808381831282C1CE139608
:102E9000FC908AE03496DE01119601900D928A959D
:102EA000E1F789819A810E944B159A8389838B81EE
:102EB0009C810E944B159C838B838D819E810E94F7
:102EC0004B159E838D838F8198850E944B15988723
:102ED0008F83BE016F5F7F4F8F2D0E947B22F80191
:102EE00080830E94581594CE13968C919AE0F92E07
:102EF000FE0131966F01DF01EF2D1D92EA95E9F792
:102F0000B6010E948F2291CFA6E0B0E0EAE8F7E197
:102F10000C940D3590934E0480934D04811520E25E
:102F2000920730F40E9493032696E2E00C94293530
:102F300080EF89838A830E94442D8160682F9C835F
:102F40008B8349815A817C8181E091E00E942F0529
:102F5000EBCFA6E0B0E0EFEAF7E10C940D359093EB
:102F60004E0480934D04811520E2920730F40E94B4
:102F7000A9032696E2E00C94293580EF89838A83A1
:102F80000E94442D8160682F9C838B8349815A81E4
:102F90007C8181E090E00E942F05EBCF0F931F937F
:102FA000CF93DF938C01EB0169E073E08C2F0E94DB
:102FB0006722892BA1F480916D0490916E04019792
:102FC00098F4DD27CD5EDC4F8881F80112821882EB
:102FD000833029F180F4813091F08230B9F0DF91B3
:102FE000CF911F910F910895EFE9FFE03197F1F72D
:102FF00000C00000E4CF8430B9F0853081F78091C3
:10300000090390910A03009751F306C080910B03C6
:1030100090910C03009799F30E94A917E0CF80913B
:103020000D0390910E03F6CF80910F039091100342
:10303000009791F72091090330910A0380910B03C7
:1030400090910C0321153105F1F2009729F7C90180
:10305000E3CFCF93DF93EC010E94841780916D043E
:1030600090916E04019730F4CE010E94A917DF9170
:10307000CF910895EFE9FFE03197F1F700C000002C
:10308000F1CF0F931F93CF93DF938C01EB0169E096
:1030900073E08C2F0E946722892B09F05CC0FE012F
:1030A000FF27D80112968C911297ED5EFC4F81306C
:1030B000B9F415969C9192FF02C080830AC090FFDC
:1030C000FCCF82E0808380910B0390910C030097EA
:1030D000B9F48091090390910A030097E1F110C0BF
:1030E0008230B9F515968C9182FD28C080FD0BC009
:1030F00083E0808380910D0390910E03009701F18E
:103100000E94841728C084E0808380910F039091EF
:1031100010030097A9F78091090390910A03009783
:10312000F9F00E94291880910B0390910C030097ED
:1031300039F78091090390910A03E2CF85E08083FB
:103140008091090390910A03009729F00E942918A1
:10315000F0CF86E08083DF91CF911F910F9108958A
:1031600080910B0390910C03B8CF0F931F93CF93D3
:10317000DF938C01862F69E073E00E946722892B20
:10318000B1F4C0910903D0910A03209781F0F801AE
:103190008281833051F4CE010E942918CE010E9411
:1031A0002918CE010E94291802C08430D0F7DF917F
:1031B000CF911F910F910895AAE0B0E0E2EEF8E1FF
:1031C0000C9409358C017B0197558F3F910509F0CF
:1031D00070F4BE016F5F7F4F802F0E946722892BA2
:1031E00031F489859A852A96E6E00C942535B70155
:1031F000C8010E94A51BF7CFCF93DF93FB01258168
:10320000211131C0EC01D755CF3FD10509F058F558
:1032100069E073E08C2F0E946722892B21F5CE0193
:1032200024E0880F991F2A95E1F7FC01E757FD4F2D
:1032300022812130E1F42091090330910A03232BEC
:1032400091F020910B0330910C03232B61F020911E
:103250000D0330910E0340910F0350911003242B66
:10326000352B232B61F081E0DF91CF91089522303F
:10327000D1F720910D0330910E03232BA1F3FC0114
:10328000E257FD4F20812E7F208387579D4F0E945C
:10329000C328E9CFEFE4F4E0848195812AE030E0AF
:1032A000B9010E94C83460930D01868180930C019E
:1032B000828580930B01848580930A01868597859A
:1032C000B9010E94C8346093090180898093080184
:1032D0008289809307018489809306010895B0E074
:1032E000A0E0E5E7F9E10C9405358FEF9FEF44305E
:1032F000510508F469C04091EB0341FB882780F930
:1033000090E0880F991F42FB002700F910E0000FA2
:10331000111F000F111F802B912B40FBCC24C0F8F4
:10332000D12C8C299D2943FB222720F9C22FE0E0D4
:10333000DE2F53E0CC0FDD1F5A95E1F78C2B9D2B30
:1033400044FBAA27A0F9B0E0E4E0AA0FBB1FEA956E
:10335000E1F78A2B9B2B45FBEE27E0F9F0E0A5E097
:10336000EE0FFF1FAA95E1F78E2B9F2B46FB22271E
:1033700020F930E0B6E0220F331FBA95E1F7822B37
:10338000932B47FB222720F930E03695322F222756
:1033900037952795822B932B2091EC03322F317098
:1033A000F32EE82EF92A26952170B22EBB0CA82EFA
:1033B000BF28C501BB0CAA0BBB0BFB01808391830B
:1033C000A283B38390E080E0CDB7DEB7EAE00C944F
:1033D0002135CF92DF92EF92FF928FEF9FEF443033
:1033E000510508F46AC0FB01C080D180E280F380FF
:1033F0000E946B068091EB03C0FA80F9B701A60129
:10340000769567955795479540FB81F9B701A601D9
:1034100022E076956795579547952A95D1F740FB19
:1034200082F9B701A60133E07695679557954795E0
:103430003A95D1F740FB83F9B701A601E4E0769510
:10344000679557954795EA95D1F740FB84F9B70101
:10345000A601F5E07695679557954795FA95D1F7CA
:1034600040FB85F9B701A601A6E0769567955795CB
:103470004795AA95D1F740FB86F9B701A601B7E0B9
:103480007695679557954795BA95D1F740FB87F99B
:103490008093EB038091EC03D0FA80F9D1FACC242D
:1034A000C0F8C0FA81F98093EC038091EB0390910E
:1034B000EC030E94101090E080E0FF90EF90DF900E
:1034C000CF90089580914F04909150040E944A1D1E
:1034D0000895DB01FC013296259134914217530780
:1034E00058F0FC01349665917491A901CD010E94B8
:1034F0004A3590E080E008958FEF9FEF08950F9395
:103500001F93CF93DF930FE414E0D0E0C0E0CE012F
:103510000E945522F80161918F01861719F0CE01A2
:103520000E945F222196C432D10589F7DF91CF91A5
:103530001F910F910895DA019C012E5F3F4FF90111
:1035400045915491F90125913491A217B30758F090
:10355000FC013496859194910E944A350E947F1A0D
:1035600090E080E008958FEF9FEF08950F931F93F1
:10357000CF93DF930FE414E0D0E0C0E0CE010E94CF
:103580005522F80181938F012196C432D105B1F7FC
:10359000C6E0D3E0FE0185919491009711F0FC0103
:1035A00009952C96F4E0C230DF07A1F7DF91CF91A7
:1035B0001F910F910895EFE4F4E0128E138E8FEABD
:1035C00090E09183808325E0248F88E893E19383C2
:1035D00082838AE090E09583848344E150E05783BE
:1035E000468348E050E051874087938782876EE1A9
:1035F00070E0758764879787868780E590E0918B78
:10360000808B538B428B48E250E0558B448B42E3D6
:1036100050E0578B468B48EC50E0518F408F158E11
:10362000178E168E91A380A322A30E947F1A0E9458
:103630006B061092EC031092EB03ECEEF3E080814A
:10364000846080838091EB039091EC030E941010C2
:103650000E94B61A0895EF92FF920F931F93CF9393
:10366000DF937C01EB018A016FEF70E0CE010E94D5
:1036700053352CEF32E0A8EFB3E090E080E0AC01EE
:103680004E5F5F4F0417150788F0F901659174913B
:10369000E616F70630F48C0F9D1FFC0171836083E2
:1036A000CA01245F3F4FA217B30749F7CDB7DEB772
:1036B000E6E00C9425359C018CEF92E0FC01A5918D
:1036C000B4912A173B0741F00C96E3E0883F9E0730
:1036D000A9F78FEF9FEF0895FC013696259134915D
:1036E00021153105B1F3F901099508950F931F9341
:1036F000CF93DF93CCEFD2E0FE0125913491821776
:10370000930741F02C9623E0C83FD207A9F70FEFAB
:103710001FEF15C0FE013896259134912115310512
:10372000B1F3CE01F90109958C01892B41F4FE0119
:103730003A9685919491009711F0FC010995C80182
:10374000DF91CF911F910F9108958091670490911F
:103750006804089580916C048170089580916C04D0
:103760008695817091E08927089580916C0483FB90
:10377000882780F9089580916504909166040895E2
:103780008832910538F48E319105E8F40497A0F45D
:1037900080E008958933910558F48D32910510F435
:1037A0008B97B1F780916A0482FB882780F908C063
:1037B00084369105B9F3ECCF80916A0482958170CB
:1037C00091E08927089580916A0483FB882780F916
:1037D000F7CF80916A0485FB882780F9089580914E
:1037E0006A0486FB882780F9089580910201877F0B
:1037F0008093020182E00E94BC0E8091020184FF4E
:1038000006C08F7E8093020182E00E94A30E809109
:10381000020185FF06C08F7D8093020180E20E9435
:10382000A30E0E94810F0895CF93DF93EC016623CE
:1038300019F082E00E94B60ECE019052811590439D
:1038400008F4DD27CE010E949303DF91CF91089504
:103850009C0130522115304308F499270E94A90396
:103860000895FC0123E0F695E7952A95E1F7EE71BE
:10387000FF27ED5DFC4F20813181AC014F70552752
:1038800081E090E002C0880F991F4A95E2F7662315
:1038900029F0822B932B91838083089580959095B6
:1038A00082239323F8CFFC0123E0F695E7952A9530
:1038B000E1F7EE71FF27ED5DFC4F8F70992721E056
:1038C00030E002C0220F331F8A95E2F78081918198
:1038D0002823392381E0232B09F480E00895B0E008
:1038E000A0E0E5E7FCE10C940835EC017B01D42E67
:1038F00089018091020182FF83C020914C033091A5
:103900004D032C173D0719F0209709F079C09091CD
:1039100002019B7F9093020161E091FD10C08091B4
:103920004E0390914F03A701481B590B61E0809112
:103930000301909104014817590708F460E0617091
:103940008091020160FB81F980930201C9010E940C
:10395000311C0E94A00E81FF08C08091020180618D
:103960008093020182E00E94A90E0E94A00E85FFB2
:1039700008C08091020180628093020180E20E946F
:10398000A90E6091020166956170A80180914C03B7
:1039900090914D030E94141CD11014C080916D04AD
:1039A00090916E04019728F560910201669561700F
:1039B000A80180914C0390914D030E94281C0E9405
:1039C000F51B2DC0B80180914C0390914D030E94CE
:1039D000E91B882319F3B80180914C0390914D03A2
:1039E0000E94EF1B8111DACFCDB7DEB7E7E00C9470
:1039F0002435EFE9FFE03197F1F700C00000D2CFA6
:103A0000CE010E94531CA801682FCE010E94281CE1
:103A100080914C0390914D038C179D0781F2F09299
:103A20004F03E0924E03E0CF80916A0480FF1EC0F6
:103A30008091020182FF1AC00E94442D20914E0302
:103A400030914F03AC01421B530B20910301309185
:103A500004014217530750F023E433E041E0BC0176
:103A600080914C0390914D030E946F1C089590919A
:103A70000201892F8E7F90FF8160809302010E9456
:103A8000F51B0895809102018E7F809302010E94B0
:103A9000F51B089590930401809303010895B0E00D
:103AA000A0E0E5E5FDE10C940735EC017B01809198
:103AB0006A0480FD07C011E0812FCDB7DEB7E8E0D2
:103AC0000C9423350E94442D6C01F70185818823D5
:103AD00069F18091020182FF08C023E433E040E0F5
:103AE000B60190E080E00E946F1CC431FCE7DF0764
:103AF000D1F0C5312CE7D20751F0C3318CE7D8079C
:103B000041F48091020181608093020102C00E9411
:103B1000371DCE01905281159043B0F410924D03A1
:103B200010924C03C8CF0E94421DF3CF8091020136
:103B30008F7EC13ED10531F0C53ED105B9F58091EA
:103B400002018F7D809302018091020180FFB3CF3B
:103B5000B701CE010E94C01BF7011581882309F42B
:103B6000AFC0112309F4A5C00E94A00E182F0E9417
:103B7000C60E812B8D7F01F110924D0310924C03E4
:103B800080916A0481FD18C060E0CE010E94311C62
:103B9000A70160E0CE010E94141C0E94C60E8D7F1A
:103BA0000E94190F82E00E94B00F59C0CE019052BE
:103BB0008115904348F67FCF89E0F701A3E4B3E095
:103BC00001900D928A95E1F71092460310924503F9
:103BD00080914C0390914D03C817D90709F04AC052
:103BE000B701CE010E94E91B882309F443C08091EC
:103BF000020181FD36C080914E0390914F038601F2
:103C0000081B190BB70180914C0390914D030E9442
:103C1000DC180817190770F50E94A00E81FF08C074
:103C20008091020180618093020182E00E94A90ECE
:103C30000E94A00E85FF08C08091020180628093DF
:103C4000020180E20E94A90E6091020166956170F6
:103C5000A70180914C0390914D030E94141C10E029
:103C60002BCFB70180914C0390914D030E94EF1B25
:103C70008111C1CF0E94A00E182F0E94C60E812B69
:103C80009091020181FB91F9909302010E94C60E6E
:103C90008D7F0E94190FD0934D03C0934C03D09297
:103CA0004F03C0924E038091020184608093020111
:103CB00079CF970140E0B601CE010E946F1CFCCE87
:103CC00011112CCFF8CE0E94EE0F089580E00E94D3
:103CD000E913817008950E94B5142FEF86E791E0F3
:103CE000215080409040E1F700C000000E94B514D0
:103CF0000E94661E882321F00E94631E0E948F2D61
:103D000008950E946B1E08950895EF92FF920F93FD
:103D10001F93CF93DF938091C303882361F0E091D9
:103D200050038DE0F82E8091C303E81748F01092FD
:103D3000C30310925003CDB7DEB7E6E00C942535EF
:103D4000EE24E394EE0EE0925003CE2FD0E0EF9DF0
:103D5000F0011124E55AFC4F84818823B1F087815A
:103D60009085892BA1F4818592858F3F980779F002
:103D700061E00E94841EFC9EF001FD9EF00D112466
:103D8000E55AFC4F14820E94C30EEE2DCCCF008169
:103D900011812281338144815581668177818085BB
:103DA0000E94CF0DE8CF08951092C5031092C4036E
:103DB000E1E5F2E08581811102C014821682379616
:103DC00082E0E938F807B1F70895DC016091590302
:103DD00080915A03962F891301C00895292F30E04E
:103DE000F901EE0FFF1FEF5AFC4F408151814A1736
:103DF0005B07A1F487E08A9FA0018B9F500D1124DF
:103E00004F5A5D4F81E0FA0184839613E6CF2F5F0E
:103E10003F4F237033272093590308952F5F3F4F5F
:103E2000922F9370D8CF6F927F929F92AF92BF9252
:103E3000CF92DF92EF92FF920F931F93CF93DF9376
:103E4000DB0114962C911497211157C0A090C30345
:103E5000EBE5F3E030E020E0B12C66246394712CB4
:103E60002A1508F048C0C384D484ED90FC901197C3
:103E70006FEF7FEF912C492D50E08A01000F111F49
:103E80000E0D1F1DE801088119810115110531F082
:103E9000C016D10609F4BA019394EDCF6F3F7607AF
:103EA000D9F1E30102C0CC0FDD1F6A95E2F7BC2A0D
:103EB000B30102C0660F771F9A94E2F7AB0141503D
:103EC0005109B416150639F512964D915C91139768
:103ED0006DE0629FF001639FF00D1124E55AFC4FE5
:103EE0005087478324E02483108211829287818740
:103EF00021E015962C930E94E51EDF91CF911F9132
:103F00000F91FF90EF90DF90CF90BF90AF909F9078
:103F10007F906F90089514822F5F3F4F3D96A0CF02
:103F20001F93CF93DF93C091590317E080915A03F9
:103F30008C1308C00E94851E0E94D41EDF91CF9171
:103F40001F910895D0E0FE01EE0FFF1FEF5AFC4FC6
:103F500080819181189FB001199F700D11246F5AB3
:103F60007D4F0E94131F2196C370E0CF0F931F93C4
:103F7000CF93DF93DC012D913C91119740E090E0CD
:103F800080E0E82FF0E0EE0FFF1FE20FF31FC0818B
:103F9000D1812097B9F0FB010081118190E005C02B
:103FA000CE17DF0709F441E09F5FE92FF0E0EE0F45
:103FB000FF1FE00FF11F0190F081E02D309781F796
:103FC0008F5FDFCF442349F0981708F4DB01CD0160
:103FD000DF91CF911F910F910895B0E0A0E0F7CF4E
:103FE00080910501882341F18091C6039091C70318
:103FF000009711F10E945C2D2091C4033091C503FC
:1040000028173907C8F49091590380915A039817DB
:1040100059F00E94901F1092C5031092C403109291
:10402000C7031092C60308950E94851E1092C7030D
:104030001092C6030E94D41E08951092C7031092D6
:10404000C6031092050180915A03809359030E9480
:10405000D41E0E94851E089580910501882319F0C1
:104060000E941D20089581E0809305010895ADE030
:10407000B0E0EDE3F0E20C94FD344C016B018035CF
:104080002CE7920761F4FB0115811123E9F081E02F
:1040900080930501812F2D96E2E10C94193581352D
:1040A000FCE79F0739F4FB011581112369F00E9499
:1040B0001D20F0CF82359C4739F4FB011581112377
:1040C00019F00E942C20E6CF9091CD018091CE0175
:1040D000892B0E94D504182F0E94D31E181731F087
:1040E000F601608171810E94B8124C0161E5E62EF3
:1040F00062E0F62EB12CA12C1D8666246394712CEF
:10410000CE0101969B878A87F70120813181442463
:104110004A94542C212C822D90E0FC01EE0FFF1FBD
:10412000E20FF31F408151814115510531F0841692
:10413000950609F42C012394EECF312CFFEF4F1696
:104140005F0609F44CC0F701448130900501832DCE
:10415000411180E0F82FF1703F2EF6018581882310
:1041600009F4D6C0332009F4D3C0B701C5010E94B9
:10417000BB1B8C01F7018581811114C09301042CB4
:1041800001C0220F0A94EAF78681822B86838091F0
:10419000C4039091C5038017910720F41093C503C1
:1041A0000093C403C301022C02C0880F991F0A9414
:1041B000E2F70197F70126812817190681F480910B
:1041C000C6039091C703009709F44FC00E945C2D6D
:1041D0000817190708F049C021E0F7012483FD857D
:1041E000F329FD872FEFA21AB20A87E0E80EF11C2F
:1041F00098E0A916B10409F087CFF60185818823DC
:1042000009F4F1C0FD85FF2309F4EDC00E94442D9F
:104210009093C7038093C6038091C303883008F549
:1042200091E0980F9093C30399E0F601DE01119697
:1042300001900D929A95E1F72DE0829FC001112423
:10424000855A9C4F29E0FE013196DC0101900D92C8
:104250002A95E1F72FEF3FEFFC0132872187948603
:10426000838611E0FD851F2715CF2090590380918B
:104270005A038C8790E080E02C85221216C08E15A0
:104280009F0509F4ACCF422C512CF201EE0FFF1F19
:10429000EF5AFC4FB182A0828FEF481A580A93E080
:1042A0004922552440925A039ACF422C512CF201B4
:1042B000EE0FFF1FEF5AFC4F80819181E7E0E89FEE
:1042C0008001E99F100D11240F5A1D4FB701C8013D
:1042D0000E94B61F0097A9F021E0FC0124838E15EF
:1042E0009F0509F47CCF2091590322120AC0801740
:1042F000910739F492012F5F3F4F237033272093AA
:104300005903EFEF4E1A5E0AF42DF3702F2EB4CF3F
:10431000F701F581FC87F701868190E0FC85F111BA
:1043200020C09301022C02C0220F331F0A94E2F72F
:10433000215031092817390731F4442309F451C0B9
:10434000C5010E94E51EC301042C01C0880F0A9418
:10435000EAF7982F9095F7018681892386833C841C
:104360003ECFAC01042C02C0559547950A94E2F764
:10437000BA01617077279C01215031098223932370
:10438000892B59F5672B49F1F70182819381892B9C
:10439000F9F0EA85FB8527E011922A95E9F70E945A
:1043A000442D282F8B839C8384E08D83F7018281A9
:1043B0009381782F8887998709811A813C8144E00D
:1043C0005E816F81892F0E94CF0DF7011582BBCFCF
:1043D00060E0C5010E94841EF8CFF42FF170FC87C5
:1043E000B2CF3C86B0CF9091590380915A03981771
:1043F00019F00E94901F35CF0E94851E1092C703AE
:104400001092C6030E94D41E2CCF84E0089550E081
:10441000440F551F94E1699F400D511D112490E5F3
:10442000899F400D511D1124CA01889608950F934C
:104430001F93CF93DF938430C8F46430B8F44A30CC
:10444000A8F40E9407228C010E946A35C82FD0E090
:10445000DC2FCC27C80101960E946A359E01282BCB
:10446000C901DF91CF911F910F91089590E080E0F5
:10447000F8CF0F931F93CF93DF93122F032F843026
:1044800078F4643068F44A3058F40E940722EC0152
:10449000602F0E948835612FCE0101960E948835D9
:1044A000DF91CF911F910F9108958432910528F4E7
:1044B00088599E4F0E946A35089580E0089584329D
:1044C000910520F488599E4F0E94883508959B01DC
:1044D000883070F49AE0899FB001112464577E4FB0
:1044E0004AE050E0C9010E945A3590E080E008950A
:1044F0008FEF9FEF08959B01883070F49AE0899FB9
:10450000B001112464577E4F4AE050E0C9010E9477
:10451000AC3590E080E008958FEF9FEF08959B0108
:10452000883070F49AE0899FB001112464527E4F64
:104530004AE050E0C9010E945A3590E080E00895B9
:104540008FEF9FEF08959B01883070F49AE0899F68
:10455000B001112464527E4F4AE050E0C9010E942C
:10456000AC3590E080E008958FEF9FEF0895A4E1CF
:10457000B0E0EDEBF2E20C940735C0902103D0904F
:10458000220381E090E0909322038093210300E0D6
:1045900010E012C04F2D612F802F0E943C039C0120
:1045A0004F2D612F802F0E943922F3948AE0F81258
:1045B000F1CF1F5F143011F0F12CECCF0F5F0430FE
:1045C00039F70E94DB1A1C861B861E861D86188AF8
:1045D0001F861A8A198A88EC90E09C8B8B8B10E0DE
:1045E000BE01655F7F4F812F0E947B221F5F1830C5
:1045F000B9F7FE0131967F018AE011928A95E9F7B9
:1046000010E0B701812F0E94A3221F5F1830C9F765
:10461000D0922203C09221036496E8E00C942335E3
:10462000EF92FF920F931F93CF93DF93EC018A01D8
:104630007C01E60EF71ECE018896CE15DF0529F423
:10464000CDB7DEB7E6E00C942535C03421E0D207C3
:1046500040F40E946A35F80180830F5F1F4F219656
:10466000EACFF8011082F9CFB0E0A0E0EAE3F3E28C
:104670000C94FF34EC017B018A0180349140D8F422
:1046800080E491E08C1B9D0B86179707A0F03E01FC
:1046900038E2630E711C80912103909122032E0158
:1046A000460E571E892B61F07E01C7018896E414DF
:1046B000F50409F043C0CDB7DEB7E0E10C941B353B
:1046C0006E0181E0C822DD24C0FF0FC0CE018796B5
:1046D0000E946A35F80190818927982789278115DA
:1046E0009C4719F48FEFF8018083570140FE13C0F7
:1046F000F1E0AF1AB10848018A0C9B1CC3018E0D72
:104700009F1D0E946A35F401908181159C4719F420
:104710008FEFF4018083F801EC0DFD1D2FEFCA141B
:10472000DB0410F69081818181159C4711F4208370
:10473000218382E0C80ED11C3296F1CFE0E4EE1660
:10474000E1E0FE0640F4F701EC1BFD0BE00FF11F6A
:1047500060810E948835FFEFEF1AFF0AA6CF8430F0
:1047600038F4643028F44A3018F40E94172208956F
:1047700090E080E0089580E1089584ED91E008954F
:10478000EF92FF920F931F93CF93DF93EC018A0177
:104790007C01E60EF71ECE01845D9D4FCE15DF0530
:1047A00029F4CDB7DEB7E6E00C942535C43D21E011
:1047B000D20740F40E946A35F80180830F5F1F4FD3
:1047C0002196E9CFF8011082F9CFB0E0A0E0EBEE3E
:1047D000F3E20C9407357C016A018C01060F171F68
:1047E000EC01CE01845D9D4FC017D10729F4CDB7F0
:1047F000DEB7E8E00C942335C43D21E0D20740F455
:10480000FE01EE19FF09EC0DFD1D60810E94883547
:104810002196E7CFCF93DF93CCE2D2E060E0CE01E8
:104820000E9488352196C11584E0D807B9F7DF9139
:10483000CF910895A4E0B0E0E0E2F4E20C940035FA
:10484000F82E2FE0281708F4B1C08FEF93E00E94F4
:104850006A358111ABC00CE212E0F11039C034E0CE
:10486000C32ECE0101965C0155245A94F5012C2DDE
:1048700011922A95E9F778014FEFE41AF40AC8017A
:104880000E946A358983882309F490C0813009F039
:1048900088C0480152E0850E911CC7010E946A350C
:1048A000D82E8A83882309F481C08FEF8D0D833041
:1048B000E8F4780183E0E80EF11CC4010E946A3537
:1048C0008B83882319F0C5010E94A0288701CECFD1
:1048D000011544E0140709F469C0C8010E946A3553
:1048E000811101C0FA940F5F1F4FB7CF8BEF8D0D71
:1048F000833060F5380193E0690E711CC4010E9499
:104900006A358B837301882309F37801E4E0EE0EA6
:10491000F11CC3010E946A358C838823B9F28B8114
:104920009C818130FFEF9F0710F0982F882726E0A9
:10493000D21631F047E0D41631F00E942918C6CFC4
:104940000E948417C3CF0E94A917C0CF54E07401FE
:10495000D512BCCFC4010E946A35D82E780184E0FC
:10496000E80EF11CC80103960E946A35DD20F1F0C3
:104970008823E1F0E82FE150FF0B5E9EC0015F9EAF
:10498000900D11244D2D4150550B840F951F01970B
:1049900008F49CCFEFE9FFE03197F1F700C0000089
:1049A000F6CF60E0C5010E94352890CF2496EFE055
:1049B0000C941C35282F35EB2303C001112497FFDD
:1049C00004C080589109892F089580589F4FFBCFCC
:1049D0008091CE03609157047091580480FF16C0F7
:1049E00020910B01269FC001279F900D1124BC012F
:1049F00076956795769567956038710508F043C0A0
:104A00006115710509F441C0862F089581FF0BC01F
:104A100020910B01269FC001279F900D1124BC01FE
:104A200076956795E9CF82FF09C080910B019B01C4
:104A3000829FB001839F700D1124DECF2091CD03A2
:104A40002223D1F290910A0180910B01482F50E06E
:104A5000291748F0CB01849FB001859F700D949F6A
:104A6000700D1124C9CF289F90011124269FA00109
:104A7000279F500D369F500D1124692F70E0CA01F9
:104A80000E94C834B9CF8FE7089581E008958091DE
:104A9000CE0380FF0CC06091070170E075956795AB
:104AA000759567956115710549F1862F089581FF08
:104AB00006C06091070170E075956795F3CF60912E
:104AC000070182FD0BC09091CC039923A1F0609166
:104AD000060180910701961738F0682F70E0603862
:104AE000710500F38FE70895899FC001112470E0DC
:104AF0000E94DC34F4CF61E070E0D7CF81E008950C
:104B00009091D1032091D203922B2091D403922B28
:104B10002091D303922B31F098E09093CD0391E054
:104B20009093CC038D3C31F40E94E82481958093CE
:104B3000D20308958E3C19F40E94E824F8CF8F3CEC
:104B400031F40E94E82481958093D1030895803D3B
:104B500019F40E94E824F8CF893D29F40E944725E2
:104B60008093D30308958A3D21F40E9447258195BF
:104B7000F7CF8B3D31F40E94472581958093D40374
:104B800008958C3D19F40E944725F8CF9FE2980FB5
:104B9000983070F4815D990B21E030E001C0220F64
:104BA0008A95EAF78091D003822B8093D0030895F1
:104BB0008D3D31F48091CE0381608093CE030895C2
:104BC0008E3D21F48091CE038260F7CF8F3DB9F7FF
:104BD0008091CE038460F1CF4091D1038D3C59F494
:104BE0008091D20387FF0DC01092D20341110BC0F8
:104BF0001092CD0308C08E3C81F48091D203181628
:104C00009CF3442381F08091D3039091D403892BAA
:104C100009F05AC01092CC0308958F3C49F447FF25
:104C2000F0CF1092D1038091D2038111ECCFE0CF6D
:104C3000803D19F41416ACF3E4CF9091D303893D71
:104C400029F41916F4F61092D303DBCF8A3D19F438
:104C500097FFD7CFF8CF9091D4038B3D29F497FFDE
:104C6000D0CF1092D403CDCF8C3D19F41916CCF3CC
:104C7000C8CF9FE2980F983090F4815D990B21E0A6
:104C800030E0B90102C0660F771F8A95E2F7CB01C9
:104C900080959091D00389238093D003B2CF8D3D2E
:104CA00031F48091CE038E7F8093CE03AACF8E3DC8
:104CB00021F48091CE038D7FF7CF8F3D09F0A1CFF6
:104CC0008091CE038B7FF0CF08950E94442D9C01EC
:104CD0009091D1038091D203982B21F03093CB0394
:104CE0002093CA039091D3038091D403982B21F091
:104CF0003093C9032093C8038FEC93E00E94AE2B3E
:104D0000089586E0EFECF3E0DF011D928A95E9F764
:104D10001092CD031092CC031092CE030895FC01A3
:104D2000828181110EC0838181110BC08481811128
:104D300008C091E08581811101C090E0892F8170C8
:104D4000089581E0FCCFA6E0B0E0E9EAF6E20C9439
:104D50000C3586E0EFECF3E0DE01119601900D9248
:104D60008A95E1F71092D1031092D2031092D303E7
:104D70001092D4038B819C81892B89F08091CA0386
:104D80009091CB030E945C2DAC019091CD039923AF
:104D9000C9F180910C018417150608F440C08D817B
:104DA0009E81892B91F08091C8039091C9030E9444
:104DB0005C2DAC019091CC03992309F46AC08091D9
:104DC00008018417150608F472C0BE016F5F7F4F9B
:104DD0008FEC93E00E94712C811105C08FEC93E061
:104DE0000E948F2681110E94652686E0FE01319681
:104DF000AFECB3E001900D928A95E1F72696E3E0DF
:104E00000C94283520910D018AE0289F90011124EF
:104E10002417350720F69F5F9093CD0302C09F3F74
:104E2000D1F71B81112359F00E94E8249FEF11163E
:104E30000CF491E0899F802D11248093D1031C8173
:104E4000112359F00E94E8249FEF11160CF491E011
:104E5000899F802D11248093D2038091D1038823D0
:104E600009F49DCF1091D203112309F498CF0E9429
:104E7000DA24882351F08093D103812F0E94DA2411
:104E8000882329F08093D2038ACF81E0F4CF81E098
:104E9000F9CF209109018AE0289F9001112424175D
:104EA000350708F092CF9F5F9093CC0302C09F3FDD
:104EB000D1F71D81112359F00E9447259FEF11164C
:104EC0000CF491E0899F802D11248093D3031E81DF
:104ED000112359F00E9447259FEF11160CF491E021
:104EE000899F802D11248093D4038091D30388233C
:104EF00009F46BCF1091D403112309F466CF0E94FB
:104F0000DA24882351F08093D303812F0E94DA247E
:104F1000882329F08093D40358CF81E0F4CF81E037
:104F2000F9CFB0E0A0E0E7E9F7E20C940635E82F0E
:104F3000F0E0E850FC4FB490282F26952695269552
:104F400030E0F901E856FB4F0491877010E0082E1D
:104F500002C0159507950A94E2F701701127F9012F
:104F6000E857FB4FE490F12C082E02C0F594E7942B
:104F70000A94E2F791E0E922FF24F901E858FB4F97
:104F8000C491D0E002C0D595C7958A95E2F7C1706B
:104F9000DD27C62ED12C0115110549F5E114F104C8
:104FA00031F086EE0E949805C601009771F5B601B2
:104FB0008B2D0E941406C601009779F5E114F104C7
:104FC000A1F50115110531F081EE0E94E105C60140
:104FD0000097C9F5CD2B31F08CE20E942C06C1144C
:104FE000D104C9F5CDB7DEB7E9E00C94223581EEE6
:104FF0000E949805C601009789F2EFE9FFE031971A
:10500000F1F700C000000197F6CFEFE9FFE031971C
:10501000F1F700C000000197C8CFEFE9FFE031973A
:10502000F1F700C000000197C7CF86EE0E94E105AE
:10503000C601009731F2EFE9FFE03197F1F700C0C8
:1050400000000197F6CFEFE9FFE03197F1F700C0DC
:1050500000000197BDCF8FE99FE00197F1F700C0F5
:10506000000091E0C91AD108BACFEF92FF920F93D6
:105070001F93CF93DF93EC01162F0AE088818823DA
:1050800009F459C0813009F052C08981813071F42E
:105090007E0182E0E80EF11C8A810E942C06E70165
:1050A000812F90E00097D9F52196E8CF823041F426
:1050B0007E01E2E0EE0EF11C8A810E949805EFCF9E
:1050C000833041F47E01F2E0EF0EF11C8A810E94F0
:1050D000E105E5CF843011F02196E2CF2A812296B6
:1050E00090E080E0AE014F5F5F4F2053330B2A30DA
:1050F000310550F00097A1F2EFE9FFE03197F1F7A9
:1051000000C000000197F6CF089FB001099F700D05
:105110001124C901860F971F2981EA01E3CFEFE926
:10512000FFE03197F1F700C000000197BBCF612F7E
:105130000E949127B9CFCDB7DEB7E6E00C942535B4
:1051400060E00E94352808954115510511F0FA01DB
:1051500009950895CF93DF93EC014A855B856E85B1
:105160007F850E94A4288B810E94BC0E8C810E94A6
:10517000A90E0E94810F86E0FE0111928A95E9F73F
:10518000DF91CF910895CF93DF93EC018D8181FD65
:1051900011C082608D838B810E94B60E8C810E942B
:1051A000A30E0E94810F488559856E857F85CE01AB
:1051B0000E94A4281092D8031092D7038D8180FDFD
:1051C00003C0CE010E94AA28DF91CF910895CF930A
:1051D000FB01C581CC23F1F0E091D703F091D80316
:1051E0003097D9F0E817F907C1F0FF2724E0EE0F58
:1051F000FF1F2A95E1F7DF01A257BD4F2C912460D4
:105200002C93E757FD4F91838083CF010E94C328E1
:105210000E94C30E8C2FCF910895C0E0FBCF0F9357
:105220001F93CF93DF938C0197558F3F910509F022
:10523000C8F5C801992724E0880F991F2A95E1F73E
:10524000EC01C757DD4FFB012581FC01E257FD4F03
:10525000808120FB80F98083222351F10E94442D1C
:105260009093D6038093D5038A818F5F8A830E94AF
:10527000A00E8B830E94B30E9B81892B8B830E948F
:10528000C60E8C834E815F816E857F85CE010E9424
:10529000A4288D8181FF02C010E000E01093D803A4
:1052A0000093D70381E0DF91CF911F910F91089573
:1052B0004C855D856E857F85CE010E94A4288D81F9
:1052C00081FFF0CFCE010E94AA288091D703909150
:1052D000D8038017910731F71092D8031092D703A3
:1052E000E1CFA9E0B0E0E7E7F9E20C940B3580915B
:1052F000D7039091D803892B61F18091D5039091C8
:10530000D6030E945C2D8C01BE016F5F7F4F89E048
:10531000FB0111928A95E9F78091D7039091D80308
:105320000E94DC1880179107A0F48091D703909118
:10533000D803992724E0880F991F2A95E1F7FC01EB
:10534000E257FD4F208122FD04C087579D4F0E94E8
:10535000C3282996E4E00C9427351F93CF93DF935D
:1053600087372CE7920759F0C1E088379C47E1F472
:10537000FB01C581CC2371F10E94F02906C0FB011D
:10538000C581CC23B1F00E94ED290E9482090E94C0
:10539000F329D82F0E94F029C82F0E94ED294D2F04
:1053A0006C2F0E94AA0AC0E08C2FDF91CF911F9131
:1053B00008950E94ED290E948E090E94F329182F5A
:1053C0000E94F029D82F0E94ED29412F6D2F0E94B5
:1053D000AA0AEACF0E94F029EECF80911001089529
:1053E00080910F01089580910E01089584E290E06C
:1053F0000E946A35853689F485E290E00E946A351C
:10540000863059F486E290E00E946A3591E089384E
:1054100009F090E0892F8170089580E0FCCFCF9350
:10542000C82F6FEF811165E684E290E00E94883515
:105430006FEFC11166E085E290E00E9488356FEF62
:10544000C11169E886E290E00E948835CF91089505
:10545000089587E290E00E946A35682F70E090E03E
:1054600080E008950895CF93C62F0E94322A6C2FB2
:1054700087E290E00E948835CF91089580E00E94F5
:105480000F2A60E070E0CB010E94332A0E94B7220D
:105490000E940A2481E00E940F2A08950E94282A6F
:1054A0000E94292A0E94322A0E94F629811102C0F4
:1054B0000E943E2A08959C01FB018581882351F0BA
:1054C000A90157574038510530F4822F0E941A2401
:1054D00080E0089581E008952FEFFC012083089576
:1054E000EF92FF920F931F93CF93DF93EC01162F50
:1054F000888120911F0330912003232B79F08E3F68
:1055000009F05CC08981833020F08550833008F039
:1055100055C0612FCE010E94C91550C08B3009F4CF
:10552000EAC0D0F4843009F488C060F4823009F411
:105530004EC008F075C08130F1F1612FCE010E949C
:105540006C2A3CC0863009F48EC008F481C08A30D1
:10555000A0F78FEF888332C0803109F4A4C000F532
:105560008D3009F487C008F481C08E3009F48AC0F8
:105570008F3019F78091210390912203892BF1F04C
:105580006B8170E06D317105C8F489819A81AE013B
:105590004C5F5F4F9827892798270E94E5230EC00C
:1055A000823109F486C008F481C0833109F492C0C5
:1055B0008E3F19F6AECF198289E08A83612FCE0122
:1055C0000E94F52DCDB7DEB7E6E00C942535898134
:1055D000823071F0833079F0813009F0AECF0E94D3
:1055E000502D0E94F6346A837B838C839D83E6CFA3
:1055F0000E94292AF6CF8091210390912203892BC2
:10560000E9F27E0100E0802F0E94E913F701928306
:1056100083830F5FF2E0EF0EF11C0430A1F7CECFD1
:105620008981823009F089CF6A817B818C819D815B
:105630000E94F6340E94332AC1CF4B816A8189814E
:105640000E9417229827892798279D838C83B6CF9D
:105650002C813D813227232732274B816A81898122
:105660000E943922ABCF0E94B722A8CF0E94BB2351
:105670008983A4CF0E94BD239827892798279A83DE
:1056800089839CCF6B8170E06D31710508F096CFF6
:1056900089819A81AE014C5F5F4F982789279827AF
:1056A0000E94C0238BCF0E940A2488CF0E9405222B
:1056B000DFCF6B8170E06D31710508F07FCF89819C
:1056C0009A81AE014C5F5F4F9827892798270E94E7
:1056D000102374CF6B8170E06D31710508F06ECFCF
:1056E00089819A81AE014C5F5F4F9827892798275F
:1056F0000E94342363CF8091210390912203892B50
:1057000009F45CCFCE010E94F52D2FEF81EE94E0DD
:10571000215080409040E1F700C000000E948F2D92
:105720004DCF9093DE038093DD030895E091DD0378
:10573000F091DE03309729F00190F081E02D09957A
:10574000089580E00895E091DD03F091DE03309745
:1057500021F00280F381E02D09950895E091DD03A9
:10576000F091DE03309739F022E0DC012C930680C3
:10577000F781E02D09950895A3E0B0E0E2ECFBE2AB
:105780000C940D352091DB033091DC032817390789
:10579000A1F09093DC038093DB03E091DD03F091B3
:1057A000DE03309751F023E029839B838A830084B2
:1057B000F185E02DCE01019609952396E2E00C9447
:1057C0002935A3E0B0E0E7EEFBE20C940D35209123
:1057D000D9033091DA0328173907A1F09093DA033F
:1057E0008093D903E091DD03F091DE03309751F00F
:1057F00024E029839B838A830084F185E02DCE01F8
:10580000019609952396E2E00C9429354091000118
:10581000509101019A012E5F3F4F485F5F4F80E03A
:105820002417350709F40895F90191919F019923EF
:10583000B9F38F5FF5CF882371F02091000130918B
:105840000101F9013296285F3F4F9191981729F095
:10585000E217F307D1F780E0089581E008959C01F5
:10586000FC0132969FEF80E04191461751F09F3F37
:1058700019F4411101C0982F8F5F8630A9F79F3F1F
:1058800009F40895290F311D97FD3A95F9016283B6
:105890000895FC01329608962191261303C0DF017A
:1058A00011971C92E817F907B9F70895682F8091AE
:1058B0000001909101010E942F2C0895682F809182
:1058C0000001909101010E94492C0895E09100018E
:1058D000F0910101329686E0DF011D928A95E9F789
:1058E0000895DC01FB0111969C9111978181981319
:1058F00022C012968C911297882319F092818913F5
:105900001AC013968C911397882319F093818913E9
:1059100012C015968C911597882319F095818913DB
:105920000AC014969C91992321F081E024812913C7
:1059300003C080E001C081E08170089508950E9455
:105940009E2C0895811106C081E08093DF030E94A0
:105950009F2C089582E0F9CF83E08093DF030E94BB
:105960009F2C08950E94A22C089581E08093DF036C
:105970000E949F2C08950E94B52C089508950895C3
:105980000E94BF2C0895089508950E94BE2C08958A
:10599000CF930E94C32C0E94B5140E94C42CC0E077
:1059A0008C2F0E94E913892B31F4CF5FC430C1F7EB
:1059B00080E0CF91089581E0FCCF85B7806885BFF6
:1059C00085B7806885BF08951F921FB61F92112466
:1059D0008F939F93AF93BF938091E003811113C086
:1059E0008091730490917404A0917504B091760431
:1059F0004196A11DB11D8093730490937404A093EC
:105A00007504B0937604BF91AF919F918F911F90D1
:105A10001FBE1F90189580917B04843031F10E9445
:105A2000CB041092E00388E190E020E40FB6F894F4
:105A3000A895809360000FBE2093600083B7817F9C
:105A4000846083BF83B7816083BF7894889583B770
:105A50008E7F83BF0FB6F894A8958091600088610F
:105A600080936000109260000FBE08950E946B0644
:105A70000E94D004089582E084BD93E095BD9AEF22
:105A800097BD80936E0008952FB7F89480917304AA
:105A900090917404A0917504B09176042FBF08957D
:105AA0002FB7F89460917304709174048091750419
:105AB000909176042FBF08959C014FB7F894809180
:105AC000730490917404A0917504B09176044FBF53
:105AD000821B930B089578941F921FB61F92112476
